:020000040800F2
:10000000E820001081020008332C0008AB2700080C
:10001000312C0008C30400083D3300080000000034
:10002000000000000000000000000000C101000806
:10003000C5040008000000001D020008ED2F0008A4
:100040009B0200089B0200089B0200089B0200081C
:100050009B0200089B020008490600089B0200085A
:100060009B0200089B0200089B0200089B020008FC
:100070009B0200089B0200089B0200089B020008EC
:100080009B0200089B0200089B0200089B020008DC
:100090009B0200089B0200089B0200089B020008CC
:1000A0009B020008DD3000089B0200089B0200084C
:1000B0009B0200089B0200089B0200089B020008AC
:1000C0009B0200089B0200089B0200089B0200089C
:1000D0009B0200089B0200089B0200089B0200088C
:1000E0009B0200089B0200089B0200089B0200087C
:1000F0009B0200089B0200089B0200089B0200086C
:10010000910600089B0200089B0200089B02000861
:100110009B0200089B0200089B0200089B0200084B
:100120009B0200089B0200089B0200089B0200083B
:100130009B020008190500089B0200089B020008AA
:100140009B0200089B0200089B0200089B0200081B
:100150009B0200089B0200089B0200089B0200080B
:100160009B0200089B0200089B0200089B020008FB
:100170009B0200089B0200089B0200080000000090
:100180009B0200089B0200089B0200089B020008DB
:100190009B0200089B0200089B0200089B020008CB
:1001A0009B0200089B0200089B020008DFF80CD0AD
:1001B00000F04AF90048004703750008E8200010E5
:1001C0002C4B19680868B0E8F04F80F30988BFF33A
:1001D0006F8F4FF0000080F311887047000000001F
:1001E00008480068006880F308884FF0000080F33A
:1001F000148862B661B6BFF34F8FBFF36F8F00DF15
:1002000000BF00BF08ED00E0DFF80C00016841F41A
:1002100070010160704700BF88ED00E0EFF30980D6
:10022000BFF36F8F134B1A681EF0100F08BF20ED3D
:10023000108A20E9F04F106009B44FF0500080F3AD
:100240001188BFF34F8FBFF36F8F0FF09DFF4FF0FB
:10025000000080F3118809BC19680868B0E8F04F05
:100260001EF0100F08BFB0EC108A80F30988BFF3AE
:100270006F8F704748000020EFF305807047000043
:100280000648804706480047FEE7FEE7FEE7FEE730
:10029000FEE7FEE7FEE7FEE7FEE7FEE7C130000807
:1002A000AD0100082DE9F05F0546002092469B460F
:1002B00088460646814640241BE02846414647467C
:1002C000224600F0B1F853465A46C01A914110D365
:1002D00011461846224600F098F82D1A67EB0108DF
:1002E0004F4622460120002100F08FF817EB00094D
:1002F0004E41201EA4F10104DFDC484631462A4667
:100300004346BDE8F09F2DE9F0410024061B254639
:1003100071F1000605DA01240027D0EB070067EB36
:100320000101161E73F1000605DA0027D2EB070261
:10033000012567EB0303FFF7B5FF86460E46174618
:100340009C46AC4204D00025D0EB050E65EB0106BF
:1003500024B10020D2EB000760EB030C704631465D
:100360003A466346BDE8F0810649074A08685043AB
:1003700043F23902104408604008704701490860A0
:1003800070470000240100206D4EC64110B5431A8D
:10039000934209D28318881803E010F8011D03F86E
:1003A000011D521EF9D210BD40EA01039B0703D084
:1003B00009E008C9121F08C0042AFAD203E011F8A4
:1003C000013B00F8013B521EF9D210BDD2B201E050
:1003D00000F8012B491EFBD270470022F6E710B54A
:1003E00013460A4604461946FFF7F0FF204610BDA3
:1003F00030B504460020034600E05B1C934203D264
:10040000E05CCD5C401BF8D030BD202A04DB203AF4
:1004100000FA02F1002070479140C2F1200320FA57
:1004200003F3194390407047202A04DB203A21FA55
:1004300002F00021704721FA02F3D040C2F12002FD
:100440009140084319467047064C074D06E0E068A6
:1004500040F0010394E8070098471034AC42F6D30B
:10046000FFF7A8FE94140108D414010870B58C1885
:1004700010F8015B15F0070301D110F8013B2A11B8
:1004800006D110F8012B03E010F8016B01F8016BA5
:100490005B1EF9D12B0705D40023521E0DD401F8A1
:1004A000013BFAE710F8013BCB1A921C03E013F86A
:1004B000015B01F8015B521EF9D5A142D8D300209F
:1004C00070BDFEE770470000064908B509684FF4A3
:1004D000FA52B1FBF2F14143009100BF491E009175
:1004E000FBD208BD2400001038B50446006800F5B2
:1004F0008050816941F480118161206800F580504D
:10050000806900900120FFF7DFFF2068009900F567
:100510008050816138BD0000014800F01EBA000023
:10052000907101202DE9F041044621B14FF40060A3
:10053000E060C000A060E0690025002861D0284686
:100540002368402619683A4A1140D4E902273A4301
:10055000024342F4007008431860206807680120D5
:1005600000F02EF920680760206846602068466821
:10057000012000F025F92068466020688560206829
:10058000C560216888694FF64172104040F08000D4
:10059000886120688669012000F012F92068866170
:1005A0002068C5612068C569012000F009F920684C
:1005B000C561226802F5805290691E4908401E49B3
:1005C00001439161206800F580508569012000F0A9
:1005D000F7F8206800F5805085612068174900F51C
:1005E00080500160206800F580500568012000F00F
:1005F000E7F8206800F580500560A069012803D065
:1006000009E04FF480609BE7206800F58050C169E5
:100610000B4A1143C16160690A4982880A64027801
:10062000D0F8010042EA00204864BDE8F0810000F3
:100630000F8120FF233FDEF8040020028020C1024A
:10064000400001000080024010B5074C2068C00740
:1006500004D006A002F074FE01202060BDE8104026
:10066000012000F0F7BC0000143C01400D0A202DD1
:100670002D2D4750494F5F50494E5F305FD6D0B661
:10068000CFCFECD3A6200D0A000000007047000079
:10069000014801F078BE00003801002030B5D1E9F2
:1006A00001231A43D1E903352B431A434B690C68E4
:1006B0001A438B691A43D1E90735012C496A04684A
:1006C00007D01A432A436FF30E040A432243026001
:1006D0000AE024F4F8442B4321430B4341680360B0
:1006E0006FF30E010A434260002030BD426942EAC6
:1006F0004101416100207047F8B514460546D1E933
:10070000000210438A686FF01F03C96803EB4212AE
:1007100042EA412108430090286100F0A3FD06460B
:1007200009E0601C07D024B100F09CFD801BA042B2
:1007300001D90320F8BDA8698006F2D40020F8BDD5
:10074000F0B56FF00F05D1E9003405EB04145B1E22
:1007500023432E018C682F0306EB042423434FEA26
:10076000054C0C8A8E8ACD68097E4FF07F4E07EBD0
:1007700004440CEB06560EEB0161012A0CD0826892
:100780003F1107EB05352B432343334302F07042FF
:100790000B43134383600FE08768084A17402A031E
:1007A000A2F580523243C5683A43234305F07045B1
:1007B0000B432B438260C3600020F0BDFF0F0FFF8F
:1007C00070B5044600F04EFD0546601C02D004489A
:1007D0000078044400F046FD401BA042FAD370BDEF
:1007E000180000102DE9F04390F845400025012C39
:1007F0000DD04FF0010C80F845C0022480F8444031
:1008000044F2F4574FF000495E1E816217E0022067
:10081000BDE8F08301EB4514C4F80090C5EBC518A2
:1008200008EB480802EB8808C4E90178B54204D215
:1008300004F12008C4F80C8000E0E1606D1C9D42CA
:10084000E8D3026802F58052D16080F844C00021EC
:1008500080F845100846DBE72DE9F043914690F813
:1008600045200024012A0AD0012680F84560022292
:1008700080F844204FF4801C5D1EC1621BE0022002
:10088000BDE8F08301EB4412C2F800C0C4EBC4170A
:1008900007EB470809EB88079760C7691FB9176816
:1008A00047F440071760AC4203D202F12007D7603B
:1008B00000E0D160641C9C42E4D3026802F58052DF
:1008C000116180F84460002180F845100846D7E7A0
:1008D000704730B590F845100023012908D0012257
:1008E00080F84520022180F844100024816A1AE033
:1008F000022030BD0D685B1CC5F30125022D0AD016
:100900000D6815F4407F09D04163836B5B1C8363E2
:10091000012B12D012E08263016302E0856B6D1C33
:100920008563C96881620D68002D01DB042BE1D36A
:1009300000F8442F4470012030BD01630B68C3F3FD
:100940000D431B1FC363036B9B680364C96840F8B6
:10095000281F02774477002030BD70B50446006838
:1009600000F5805041694FF0000549064FF001063F
:1009700008D5204600F0ECF92068402100F58050B1
:10098000416109E04069C0070AD0204600F0ACFA96
:10099000206800F58050466184F8446084F8455032
:1009A00020684FF4803100F580504161206800F5E7
:1009B0008050406900040CD52046FFF789FF20686D
:1009C0004FF4004100F58050416184F8446084F8A0
:1009D000455070BD2DE9FC474FF000060400B146BC
:1009E000009603D094F8440018B107E00120BDE858
:1009F000FC8784F84560204600F0E2F8664801680C
:100A000041F480410160006800F480400190634837
:100A1000016821F4000101600168226A114301604C
:100A2000206800F58050016841F00101016000F08C
:100A300019FC05464FF4FA7709E000BF00F012FCFC
:100A4000401BB84203D9032004F8440F67E0206834
:100A500000F580500068C007F0D12068006920F0E0
:100A60001C0501F011F84E494E4A0144914202D250
:100A700045F0080516E04C494C4A0144914202D227
:100A800045F00C050EE04A494A4A0144914209D317
:100A9000494908444949884202D245F0040501E029
:100AA00045F01005206805614FF400420021204602
:100AB00000F01CFA0125A8BBFF20FFF781FE60684B
:100AC00088B300F0CFFB804641F288376A460121A7
:100AD000204600F0FBF800F0C5FBA0EB0800B84290
:100AE00017D800984007F1D54FF4805200212046D6
:100AF00000F0FCF9B0B900F0B5FB80466A46012170
:100B0000204600F0E3F800F0ADFBA0EB0800B8428F
:100B10000AD901212046FFF705FD04F8445F0320B0
:100B2000667064E724E018E000988006E6D56A461F
:100B30001F21204600F0CAF8D0B90098C10603D59D
:100B40004FF40061E16000E0E660400701D5A66077
:100B500019E04FF48040A06015E0E068A168C0088B
:100B600040EA510082B20021204600F0BFF930B1C6
:100B700001212046FFF7D6FC84F8445036E740F6C2
:100B8000FF70FFF71DFE49462046FFF7CBFC84F8B7
:100B9000445000202BE70000443802400438014054
:100BA00000D3CEFEC0E1E40040F1E9FD40787D01D4
:100BB00000796CFC005A6202001F0AFA80F0FA0207
:100BC000F0B587B0044614216846FFF706FC3949A2
:100BD000206888426CD138480024016841F00071D7
:100BE0000160016801F000710591016841F08061C8
:100BF0000160016801F080610591016841F00061C8
:100C00000160016801F000610591016841F0040193
:100C10000160016801F004010591016841F00101E2
:100C20000160016801F001010591016841F00201D4
:100C30000160016801F002010591016841F0400185
:100C400001600068022500F0400005903220CDE9E7
:100C5000000502AA03260B2782E8D0006946174840
:100C600000F004FA8620CDE9000502AA694682E870
:100C7000D000134800F0FAF9A802CDE9000502AA55
:100C8000694682E8D0000F4800F0F0F97003CDE922
:100C9000000502AA694682E8D0000B4800F0E6F998
:100CA000002205213D2000F0A1FC3D2000F090FC39
:100CB00007B0F0BD0080024030380240000802401A
:100CC0000000024000040240001802402DE9F047F5
:100CD000044690F84400914682281DD0822084F872
:100CE0004400226810694FF6FF7500F01C03208A4B
:100CF00005EAC02018434FF4F86303EA8111014369
:100D000021F0020040F00105156100F0ABFA064643
:100D100001274FF4803810E00220BDE8F08700BFC3
:100D200000F0A0FA801B404505D304F8447F002062
:100D300060700320F1E720680569E807F0D12068BA
:100D4000406981B2C9F8001084F844700020E4E7DB
:100D50000148006807F01ABC40000020F8B50446BE
:100D600090F84500012839D0012584F8455002202B
:100D700084F8440020680026016841F00801016001
:100D80002068006800902846FFF79EFB21680098C5
:100D900008602068016841F0040101602068006873
:100DA00000900120FFF790FB216800980860204622
:100DB000FFF79AFB206800F58050816941F40051EB
:100DC0008161206800F58050816941F002018161F4
:100DD00084F8445084F845600020F8BD0220F8BD36
:100DE000F0B590F845200023012A11D0012780F8A2
:100DF0004570022280F84420002459B1C66A326846
:100E0000002A0ADA122100F8441F44700120F0BDC4
:100E10000220F0BD00F8447FF7E740F2F455A94204
:100E20000BD9B1FBF5FCB1FBF5F205FB1C1CBCF1C9
:100E3000000F00D0521C012A43D1326842F04052C8
:100E40003260C26AC1F30C015160C16A0A6842F0A3
:100E500000420A60C16AC968C16234E0D6F800C0C5
:100E60002CF0405CC6F800C033B9C66AD6F800C0A2
:100E70004CF0805CC6F800C0C66A7560561EB3426E
:100E800014D1C66AD6F800C04CF0005CC6F800C0A9
:100E9000C2F10106C6EBC61606EB4606D0F82CC01A
:100EA00001EB8606C6F30C06CCF80460C66AD6F8D9
:100EB00000C04CF0004CC6F800C0C66A5B1CF66867
:100EC000C6629342CAD3016801F580514A6952074C
:100ED00005D504224A61016801F580514C6000F893
:100EE000447F44700020F0BD704700002DE9F041C0
:100EF000044690F8440042281ED0422084F8440062
:100F0000236818694FF6FF7600F01C05208A06EA70
:100F1000C02028434FF4F86505EA8111014390B2DF
:100F200041F0030558612068056100F09BF9064611
:100F300001274FF4803810E00220BDE8F08100BFA7
:100F400000F090F9801B404505D304F8447F002051
:100F500060700320F1E720680569E807F0D184F8A4
:100F60004470EAE72DE9F04186B014216846FFF7A6
:100F700034FA2F480168002957D14FF00108C0F812
:100F800000802C480024016841F0010101600068E4
:100F9000022500F0010005904FF63F00CDE9000565
:100FA00002AA03260C2782E8D0006946224800F0F6
:100FB0005DF802AA694682E8D000CDE900851F48A5
:100FC00000F054F848F21710CDE9000502AA69466E
:100FD00082E8D0001A4800F049F84FF68370CDE956
:100FE000000502AA694682E8D000164800F03EF8E3
:100FF000C020CDE9000502AA694682E8D000124867
:1010000000F034F84CF20370CDE9000502AA6946FD
:1010100082E8D0000D4800F029F800220521302098
:1010200000F0E4FA302000F0D3FA06B0BDE8F08119
:10103000000000103838024000140240000802404E
:101040000018024000100240001C0240000C024048
:1010500070470000044910B50A68024202D00860D7
:10106000FFF7F6FF10BD0000143C01402DE9F84FDA
:1010700000224FF0010803254FF00F0E0B6808FA0D
:1010800002F42340A3426ED14E68012E05D0022EF9
:1010900003D0112E01D0122E12D186684FEA420CD5
:1010A00005FA0CF7BE43CF6807FA0CF737438760A1
:1010B0004668A6430C79C4F300149440344344605A
:1010C000C668570005FA07FC8C6826EA0C06BC4087
:1010D0003443C4604C68022C01D0122C13D1D408C4
:1010E00000EB8404A346D4F8209054074FEAD46A56
:1010F0000EFA0AF629EA06090E6906FA0AF646EA1F
:101100000906CBF8206004680E7924EA0C0406F086
:101110000306BE40264306604C68E4006FD53B4C96
:10112000266846F480462660246822F0030604F40C
:1011300080440094364C3444A446D4F808489607BA
:10114000360F0EFA06F7BC43324FB84201D10027E2
:101150002EE0314FB84201D1012729E02F4FB8428C
:1011600002D1022724E04AE02D4FB84201D10327E3
:101170001EE02C4FB84201D1042719E02A4FB84293
:1011800001D1052714E0294FB84201D106270FE00D
:10119000274FB84201D107270AE0264FB84201D1B4
:1011A000082705E0244FB84201D1092700E00A27AB
:1011B000B7402743CCF80878204E34684F689C43EA
:1011C000FF0300D51C4334601C4E361D34684F6845
:1011D0009C43BF0300D51C433460184E0836346866
:1011E0004F689C43FF0200D51C433460134E0C36FD
:1011F00034684F689C43BF0200D51C433460521CC6
:10120000102AFFF43BAFBDE8F88F000044380240DD
:10121000003001400000024000040240000802408B
:10122000000C02400010024000140240001802406E
:10123000001C02400020024000240240003C01400B
:101240000069084000D001207047426931EA02027B
:1012500000D10904816170470AB1816170470904B6
:10126000FBE700000148806870470000180000108C
:1012700090F83D20202A01D002207047242280F8D7
:101280003D200268136823F0010313600268536A6B
:1012900023F0100353620268536A0B4353620168E0
:1012A0000A6842F001020A60202180F83D10002007
:1012B000704790F83D20202A01D002207047242258
:1012C00080F83D200268136823F00103136003686F
:1012D0005A6A22F00F020A4391B2596201680A6801
:1012E00042F001020A60202180F83D100020704782
:1012F00070B5040025D094F83D00002520B984F88D
:101300003C50204600F0B8F8242084F83D002068C6
:10131000016821F0010101602068016841F4004189
:1013200001602068016821F40041016000F0B2FB17
:101330004D4A6168914201D84C4900E04C498842CD
:1013400001D2012070BD4B492368B0FBF1F15E680A
:1013500026F03F060E435E606368934206D94FF461
:10136000967359434FF47A73B1FBF3F12368491C28
:101370001E6A26F03F06314319626168914210D817
:101380004900401EB0FBF1F2521CC2F30B02042ACA
:1013900001D2042022E0B0FBF1F0401CC0F30B00AE
:1013A0001CE0A268F2B301EBC10303EB0116431E7C
:1013B000B3FBF6F35B1C43F480431B0549D092B3A7
:1013C00001EBC10202EB0111401EB0FBF1F0401C29
:1013D000C0F30B0040F4804040F400402168CA692B
:1013E0004CF6FF739A431043C861D4E907100143D8
:1013F0002068026822F0C00211430160D4E90301B1
:1014000001432068826848F2FF339A4311438160A8
:10141000D4E9050108432168CA6822F0FF0210439D
:10142000C86001E00EE016E02068016841F00101AB
:1014300001602564202084F83D00256384F83E5037
:10144000002070BD01EB4106431EB3FBF6F35B1CAD
:10145000B3E70120C2E701EB4101401EB0FBF1F010
:10146000401CC0F30B00B7E7A086010080841E007B
:1014700000093D0040420F0010B586B0044614211B
:101480006846FEF7AAFF13492068884220D1124817
:10149000016841F0020101600068694600F0020045
:1014A0000590C0200090122001900120029003209E
:1014B0000390042004900948FFF7D8FD0648103037
:1014C000016841F400110160006800F4001005900B
:1014D00006B010BD00540040303802400004024005
:1014E000024881680278114481607047180000103A
:1014F0000B4810B5016841F400710160016841F4C6
:1015000080610160016841F480710160032000F096
:101510008DF8002000F006F800F03EF8002010BD25
:10152000003C024010B5014688B00022192000F0AE
:101530005DF8192000F04CF813480024016841F0D0
:1015400001010160006805A900F0010006906846ED
:1015500000F07AFA00F0AEFA0C494000B0FBF1F16D
:101560000C480B4A491E026040F2E732C0E90324EE
:10157000C0E9011400F066FF10B1012008B010BDF1
:10158000044800F07BFFF9E74438024040420F0076
:1015900000000140D87101200C4882B0016841F47C
:1015A00080410160006800F4804000900748001FFF
:1015B000016841F0805101600068002200F0805015
:1015C00000900F21901E02B000F010B84438024085
:1015D000002809DB00F01F02012191404009800032
:1015E00000F1E020C0F8001170470000F0B40E4B8D
:1015F0001B680C46C3F30223C3F10705042D00D971
:101600000425191D072901D2002300E0DB1E012655
:1016100006FA05F1491E214099409E40761E16406B
:101620003143F0BC01F09CBE0CED00E0064900F037
:10163000070208684FF6FF03184040EA0220034AF9
:1016400010430860704700000CED00E00000FA0550
:101650002DE9F8431748016841F0805101600068A6
:10166000154F00F08050012600903E64FFF7FAFD10
:1016700005464FF47A78114C05E000BFFFF7F2FD04
:10168000401B40450DD86068C003F7D57E64FFF766
:10169000E9FD0546464607E0FFF7E4FD401BB04282
:1016A00002D90320BDE8F88360688003F4D50020E8
:1016B000F8E700004038024000000E420070004091
:1016C0002DE9F84F04460068DFF824A2894F8A4DBF
:1016D000C1074FF001084FF0000603D1810701D484
:1016E000400648D5CAF86860FFF7BCFD814605E0B2
:1016F000FFF7B8FDA0EB090002287DD8286800019B
:10170000F6D42078C1077D4805D06168227A890126
:1017100041EA027101602178890711D50168626888
:10172000237B9201C1F3027142EA036242EA017132
:1017300001603968E26921F01F01521E11433960CE
:101740002178490608D56168227B890141EA026156
:10175000227A41EA02710160CAF86880FFF782FDCF
:10176000814605E0FFF77EFDA0EB0900022843D883
:1017700028680001F6D52068410701D400074ED53E
:10178000CAF87060FFF76EFD814605E0FFF76AFD5D
:10179000A0EB090002282FD82868C0438000F5D5A7
:1017A00020784107564814D501682269237D9201AB
:1017B000C1F3027142EA036242EA017101603968D1
:1017C000226A6FF0FF0321F4F85103EB0222114368
:1017D00039602178090712D501682269C1F30361D4
:1017E000920142EA0161227E41EA02710160386899
:1017F000616A20F4403000E051E008433860CAF8E4
:101800007080FFF72FFD074605E000BFFFF72AFDB8
:10181000C01B022843D82868C0438000F6D4207833
:10182000800653D534484030016841F08051016052
:101830000068344D00F080500090286840F48070BB
:101840002860FFF70FFD074605E000BFFFF70AFD20
:10185000C01B022823D82868C005F7D5274D143DA2
:10186000286810F4407020D0218D01F4407181422D
:101870001BD0286820F440712348C0F8008006601F
:1018800029602868C00710D0FFF7ECFC064641F23B
:10189000883707E0FFF7E6FC801BB84202D9032037
:1018A000BDE8F88F28688007F4D5A16A1248C1F313
:1018B00001220830032A13D0016821F4F8110160D5
:1018C0002868218DC1F30B01084328602078C006E9
:1018D00004D50E4994F82C00C1F8E0010020DFE7A0
:1018E00002680B4B22F4F81219400A430260E7E742
:1018F000000047428C3802400038024084380240E1
:101900008838024000700040400E474200104742B5
:10191000FFFCFF0F2DE9F0470E46050065D0DFF80C
:101920001481D8F80000F7B200F00F00B04207D2DF
:1019300088F80070D8F8000000F00F00B04254D1D1
:1019400028683D4C810712D5400703D5206840F434
:10195000E05020602878000703D5206840F46040FC
:1019600020602068A96820F0F000084320602878F3
:10197000C0072DD0304968680839012812D00228E4
:1019800013D0032811D00968890700292DDA2168AE
:1019900021F0030101432160FFF764FC814641F21D
:1019A000883A0EE009688903EFE709688901ECE7E6
:1019B000FFF758FCA0EB0901514502D90320BDE80F
:1019C000F0872068696800F00C00B0EB810FEFD160
:1019D000D8F80010404601F00F01B14207D9077056
:1019E000006800F00F00B04201D00120E7E728783E
:1019F000400705D52068E96820F4E05008432060DE
:101A00002878000706D52068296920F4604040EA5C
:101A1000C100206000F05EF82168084AC1F303119C
:101A2000515CC8400649086006480068FFF77AFD27
:101A30000020C4E7003C0240083802405C11010865
:101A4000240000101C0000100F2202600C4A1368D2
:101A500003F003034360136803F0F003836013682B
:101A600003F4E053C36012684FF4E05303EAD20278
:101A700002610448006800F00F0008607047000031
:101A800008380240003C02400148006870470000EE
:101A9000240000100448054900680968044AC1F39D
:101AA0008221515CC8407047240000100838024071
:101AB0006C1101080448054900680968044AC1F32B
:101AC0004231515CC8407047240000100838024081
:101AD0006C110108154810B5006810F00C0214488C
:101AE00013D01449042A0FD0082A0ED10F4C241FFA
:101AF0002268236802F03F025B0207D52068C0F32A
:101B00008810A0FB010106E0084610BD2168C1F362
:101B10008811A1FB00010023FEF7C4FB2168C1F37B
:101B20000141491C4900B0FBF1F010BD08380240EA
:101B30000024F40040787D012DE9F84F04006ED0B8
:101B40002078DFF83C93C007A9F104054AD009F1D9
:101B500004000168C1F38101012908D00068C0F3C5
:101B6000810002280AD1D9F80000400206D5286871
:101B7000800337D560680028E1D033E06068B0F5B5
:101B8000803F10D0B0F5A02F286810D020F480300E
:101B90002860286820F4802028606068A8B1FFF7DA
:101BA00061FB06460DE0286840F48030F4E740F41D
:101BB00080202860F7E700BFFFF754FB801B6428F4
:101BC00073D828688003F7D50CE0FFF74BFB064677
:101BD00005E000BFFFF746FB801B6428F0D82868AB
:101BE0008003F7D42078DFF89C8280074FF0000A4A
:101BF0003ED5A348001D016811F00C0F08D0006805
:101C0000C0F3810002280BD1D9F80000400207D4AC
:101C10002868800716D5E068012800D112E02BE182
:101C2000E068B8B10120C8F80000FFF71BFB0646CA
:101C300005E000BFFFF716FB801B0228C0D828680C
:101C40008007F7D52868216920F0F80040EAC10034
:101C500028600DE0C8F800A0FFF704FB064604E08A
:101C6000FFF700FB801B02281FD828688007F7D4E5
:101C70002078000722D5824E83486169703671B1A1
:101C800001210160FFF7EEFA074604E0FFF7EAFAE8
:101C9000C01B022809D830688007F7D50EE0C0F8CD
:101CA00000A0FFF7DFFA074605E082E0FFF7DAFA67
:101CB000C01B02287DD830688007F7D42078400701
:101CC00068D5DFF8BCB100270BF13C0BDBF8000056
:101CD000C0000BD4DBF8001041F08051CBF80010AD
:101CE000DBF80000012700F080500090674E30685C
:101CF000C00510D4306840F480703060FFF7B2FA4D
:101D0000009005E0FFF7AEFA0099401A022850D87B
:101D10003068C005F6D55A4EA0686C3601280FD041
:101D20000528306810D020F001003060306820F0C5
:101D300004003060A068B8B1FFF794FA00900FE09B
:101D4000306840F00100F4E740F004003060F7E74D
:101D5000FFF788FA0099411A41F28830814266D82B
:101D600030688007F4D50EE0FFF77CFA009007E0BA
:101D7000FFF778FA0099411A41F28830814256D82B
:101D800030688007F4D42FB1DBF8001021F08051C7
:101D9000CBF80010A069C8B33949091D0968C1F31F
:101DA000810102294AD00228504607D0C8F86000B5
:101DB00000E03CE0FFF756FA04463BE04746C8F82F
:101DC0006000FFF74FFA064605E000BFFFF74AFA4A
:101DD000801B02282BD828688001F7D4D4E907019A
:101DE0000843A16A2A4A490802EB0141626A41EAB2
:101DF0008211084394F82C1040EA0161C9F80010E0
:101E000001203866FFF72EFA044606E036E000BFF0
:101E1000FFF728FA001B022809D828688001F7D5A7
:101E20002CE000BFFFF71EFA001B022802D9032096
:101E3000BDE8F88F28688001F4D41FE00128F7D0AE
:101E4000D9F80000E26900F48001914214D1226ABD
:101E500000F03F0191420FD147F6C071626A014024
:101E6000914209D1A26A00F44031914204D1E16A61
:101E700000F07060884201D00120D9E70020D7E748
:101E80000438024000004742800E47420070004084
:101E90000000FFFF2DE9F0470446007900278A463D
:101EA00001280ED00125257160794FF00009012825
:101EB00009D00420A060012784F804903846BDE8CA
:101EC000F0870220FBE74FF0020884F80580FFF757
:101ED000C9F906460CE000BFFFF7C4F9801B0228D1
:101EE00006D96571C4F8088084F804900120E6E7FB
:101EF00020684068C043C007EED120688068E06079
:101F0000CAF800006571D7E710B5044600F10C016E
:101F1000FFF7C0FF08B1002010BDE06810BD70B52C
:101F2000040003D06079002510B105E0012070BDE8
:101F30002571204600F00CF80220607120680168CD
:101F400041F00401016001206071A560002070BDB6
:101F500008B500680649884208D10648016841F082
:101F600040010160006800F04000009008BD0000E2
:101F700000080650343802402DE9F74F0446007F30
:101F8000934601281BD04FF0010884F81C800220E2
:101F900060772168CA204862206853214162206826
:101FA00080684FF0000540054FF0FF064FF0030A30
:101FB0004FF47A790FD5FFF755F9074607E002206D
:101FC000BDE8FE8FFFF74EF9C01B484511D82068C9
:101FD000C0684007F6D42068816821F48061816080
:101FE000FFF740F907460BE0FFF73CF9C01B4845F7
:101FF00006D92068466284F81DA025770320DFE714
:102000002068C0684007EFD52068816821F007018B
:1020100081602068816841EA0B0181602168019834
:1020200048612068816841F480618160206846626F
:1020300084F81D8025770020C2E7000010B50068F5
:102040000B4641680D480140080CD870C1F30424C8
:102050005C7001F03F049C70C1F34231197052B9B9
:1020600000F0E8FDD870587800F0E4FD58709878DA
:1020700000F0E0FD9870002010BD00003FFFFF0061
:1020800010B50B460168896A596001680969C1F396
:102090000E019960006801680E480140C1F30540D7
:1020A0001870C1F306245C7001F07F049C7040241A
:1020B00004EA1141D97052B900F0BCFD187058788B
:1020C00000F0B8FD5870987800F0B4FD98700020CA
:1020D00010BD00007F7F7F0070B5040002D0607FDC
:1020E00010B106E0012070BD00202077204600F0EE
:1020F00049F8022060772168CA204862216853208D
:102100004862204600F0AAFDFF25042618BB20687F
:1021100081681B4A114081602168886862681043A9
:10212000D4E904231A43104388602168E0680861F9
:1021300020680169228941EA024101612068C16881
:1021400021F08001C16020688068800607D42046A5
:1021500000F0FEF818B1206845626677C2E7206893
:10216000016C21F4802101642068016CA269114393
:1021700001642068456201206077002070BD000086
:10218000BFFF8FFF00680349884202D10249012046
:1021900008607047002800403C0E47422DE9F04798
:1021A0000446007F0B4601281FD04FF0010984F838
:1021B0001C9002206077DAB19878D97840EA01451E
:1021C00058781978000240EA413005432168CA2056
:1021D0004862216853204862204600F03FFD0026F7
:1021E000FF274FF0040860BB1AE00220BDE8F0872B
:1021F0005878C10603D500F0EF000A305870D8783F
:1022000000F021FD0204587800F01DFD42EA002292
:10221000987800F018FD0243187842EA4035D5E777
:102220000F480540206845602068C16821F08001A2
:10223000C1602068806880060AD4204600F088F8D3
:1022400030B12068476284F81D8026770120CDE7F1
:102250002068476284F81D9026770020C6E70000BA
:102260003FFFFF002DE9F0470446007F0D4601289F
:1022700027D04FF0010A84F81CA002206077206864
:10228000002680684FEA4060F2B1002800DBEE7063
:10229000A878297840EA01476878E978000240EA9E
:1022A000014007432168CA204862216853204862E0
:1022B000204600F0D3FC4FF0FF084FF00409A0BB0C
:1022C00016E00220BDE8F087002800DBEE702878D9
:1022D00000F0B9FC0204687800F0B5FC42EA002284
:1022E000A87800F0B0FC0243E87842EA0047D9E75A
:1022F00016480740206807602068816821F4802123
:102300008160D5E90301084321688A681043886029
:102310002068C16821F08001C16020688068800663
:102320000BD4204600F014F838B12168C1F824809D
:1023300084F81D9026770120C4E72168C1F8248025
:1023400084F81DA026770020BCE700007F7F7F0077
:1023500070B504460068C16821F0A001C160FEF7B5
:1023600081FF05464FF47A7607E000BFFEF77AFF5B
:10237000401BB04201D9032070BD2068C0688006B0
:10238000F4D5002070BD10B5044600688069C00710
:1023900007D0204600F03AF82068416941F0010179
:1023A000416110BD70B50D46040003D094F82C00B7
:1023B00010B107E0012070BD002084F82D002046F8
:1023C00000F011F8022084F82C00211D2068FEF78F
:1023D00065F9D4E900022946FEF7B2F9012084F834
:1023E0002C00002070BDFEF7BDBD10B5044690F86E
:1023F0002C00022809D0022084F82C002068FEF767
:1024000075F9012084F82C00002010BD70470000F1
:1024100070B5044690F82C000D4602280DD002201D
:1024200084F82C002068FEF767F92868022805D098
:102430005FF0010084F82C00002070BD0520F9E752
:102440007047704710B5040003D094F83D0010B1F8
:1024500007E0012010BD002084F83C00204600F079
:102460000CF8022084F83D00211D206800F03CFE9D
:10247000012084F83D00002010BD70470168CA6843
:1024800042F00102CA600068816801F00701062974
:1024900003D0016841F001010160002070477047DE
:1024A00070B50446006801694FF00005C94389070B
:1024B00015D4C168C943890711D4E91E01610120FF
:1024C0002077206880698007204602D0FFF7E7FF69
:1024D00004E000F098F8204600F096F82577206890
:1024E0000169C943490717D4C168C943490713D4CF
:1024F0006FF004010161022020772068806910F4E8
:10250000407F204602D0FFF7CAFF04E000F07BF8CE
:10251000204600F079F8257720680169C94309074A
:1025200016D4C168C943090712D46FF008010161CC
:10253000042020772068C0698007204602D0FFF77A
:10254000AEFF04E000F05FF8204600F05DF825776C
:1025500020680169C943C90617D4C168C943C906BF
:1025600013D46FF010010161082020772068C06942
:1025700010F4407F204602D0FFF791FF04E000F006
:1025800042F8204600F040F8257720680169C943E9
:10259000C90708D1C168C943C90704D1891E0161AF
:1025A000204600F033F820680169C943090609D4C0
:1025B000C168C943090605D46FF080010161204656
:1025C000FFF73EFF20680169C943490609D4C16885
:1025D000C943490605D46FF040010161204600F06F
:1025E0001FF820680169C94389060BD4C168C94333
:1025F000890607D46FF0200101612046BDE87040D4
:10260000FFF71FBF70BD70477047000000680349A7
:10261000884201D1FEF764BF70470000000001400E
:10262000704770B5040004D094F83900002510B14B
:1026300006E0012070BD84F83850204600F022F8F2
:10264000242084F839002068C16821F40051C16059
:10265000204600F0ADFD2068016921F49041016140
:102660002068416921F02A0141612068C16841F474
:102670000051C160E563202084F8390084F83A00F5
:10268000002070BD10B586B0044614216846FDF7E1
:10269000A4FE14492068884221D113480021026811
:1026A00042F010020260006800F0100005900E4831
:1026B0001438026842F001020260006800F0010074
:1026C00005904FF4C06000900220CDE90101032085
:1026D00003900720049069460448FEF7C7FC06B043
:1026E00010BD0000001001404438024000000240CC
:1026F0002DE9F843044690F839001F4616460D466A
:10270000202850D1B5B1AEB194F8380001284AD094
:10271000012084F838004FF00008C4F83C802120E4
:1027200084F83900FEF79EFDA6848146E68484F88D
:10273000388026E00120BDE8F883E08C401EE0846C
:10274000A0684B46B0F5805F4FF000024FF080016B
:102750002046009703D000F0BFFDE8B90DE000F07F
:10276000BBFDC8B928882168C0F30800486020690B
:1027700008B16D1C05E0AD1C03E0216815F8010BE4
:102780004860E08C0028D8D14B46002240212046EA
:10279000009700F0A1FD08B10320CCE7202084F8C9
:1027A00039000020C7E70220C5E7FEE700B587B083
:1027B0001C216846FDF711FE154814494FF4C072FC
:1027C00001600121416081600821C1601021016127
:1027D0000021C0E905124FF40062C0E9071241620E
:1027E000910081620220072104228DE807000391F5
:1027F0000321CDE90410069069460548FFF7D2FD94
:10280000002801D0FDF742FF07B000BD400100A045
:102810003801002030B5474DB7B00022D5E900019E
:10282000CDE92A0101212AA805F034FF424C0022FB
:10283000A061D5E90201CDE92C0101212CA805F008
:1028400029FFE061D5E90401CDE92E010022012133
:102850002EA805F01FFF2062D5E90601CDE9300161
:102860000022012130A805F015FF6062D5E90801BA
:10287000CDE932010022012132A805F00BFFA06250
:10288000D5E90A01CDE934010022012134A805F07F
:1028900001FFE0621C2205F130016846FDF776FD7C
:1028A0000021684605F0CCFE20601C2205F14C0199
:1028B00007A8FDF76BFD002107A805F0C1FE6060C9
:1028C0001C2205F168010EA8FDF760FD00210EA88D
:1028D00005F0B6FEA0601C2205F1840115A8FDF7E5
:1028E00055FD002115A805F0ABFEE0601C2205F1A6
:1028F000A0011CA8FDF74AFD00211CA805F0A0FEC0
:1029000020611C2205F1BC0123A8FDF73FFD002139
:1029100023A805F095FE60614FF47A71A06905F077
:10292000D9FE28B105A000BF00F00AFD37B030BDC8
:1029300009A0F9E768100108000000200D0A0D0A3F
:102940005374617274206F7354696D65722045729F
:10295000726F720D0A0D0A000D0A0D0A537461722E
:1029600074206F7354696D6572204F4B0D0A0D0A08
:1029700000000000F0B587B014216846FDF72DFD7A
:1029800037480024016841F004010160016801F04A
:1029900004010591016841F020010160016801F026
:1029A00020010591016841F080010160016801F09A
:1029B00080010591016841F001010160016801F0A9
:1029C00001010591016841F040010160016801F0D9
:1029D00040010591016841F010010160016801F0BA
:1029E00010010591016841F002010160016801F0E8
:1029F00002010591016841F0080101600068194F6A
:102A000000F008004FF4E0560590012231463846A8
:102A1000FEF722FC4FF40050CDE90004694612484D
:102A20000294FEF723FB012510480095CDE901042F
:102A300069460F48FEF71AFB0220CDE90250CDE9A6
:102A4000006569463846FEF711FB00220521062085
:102A5000FEF7CCFD0620FEF7BBFD07B0F0BD000081
:102A600030380240001C02400008024000001110F3
:102A700000000240144810B512490160134941603A
:102A800000214FF480428160C0E9031241618161FD
:102A9000C1610162FEF72CFC08B1FDF7F7FD0021D2
:102AA0000948FEF7E5FB08B1FDF7F0FD00210648F7
:102AB000FEF7FFFB002803D0BDE81040FDF7E6BDA0
:102AC00010BD0000005400409C400120A086010081
:102AD0000EB5002108460CF069F913490020144A8C
:102AE0000860091D104B0860091D08330860CDE916
:102AF00000020E4902911A1F111F0E4805F054F9E9
:102B00000C4805F06BFB0B4890F82D004007094876
:102B100002D505F0BDFB01E005F066FBBDE80E4007
:102B2000044802F063B900000C0000107DEF0008BB
:102B3000255E0008A8000010074910B50548086088
:102B40000846FFF7ECF9002803D0BDE81040FDF778
:102B50009DBD10BD00080650DC00001030B587B0E8
:102B600014216846FDF739FC2248002420490594C9
:102B7000C0E900147F218160FF21C0E90314446192
:102B80008461FFF7A9FA08B1FDF780FD12258DF8E1
:102B9000005059208DF8010030208DF80200039478
:102BA0000122694613480494FFF75CFB08B1FDF766
:102BB0006DFD02208DF814008DF8155015208DF84C
:102BC000160020208DF81700012205A90948FFF7FB
:102BD000E5FA08B1FDF75AFD002211460548FFF756
:102BE000CBF9002801D0FDF751FD07B030BD000042
:102BF00000280040EC0000100C4810B50A490160A4
:102C00004FF4E1314160002181600C22C160C0E9D4
:102C100004128161C161FFF704FD002803D0BDE803
:102C20001040FDF733BD10BD001001402001001021
:102C3000FEE77047010901EB810100F00F0000EB96
:102C40004100C0B27047002102E00A38C0B2491CFE
:102C50000A28FAD2090740EA1160704770B50446A5
:102C60000068C168490614D44FF0FF31C160FEF717
:102C7000F9FA05464FF47A7607E000BFFEF7F2FA5C
:102C8000401BB04201D9032070BD2068C0684006D7
:102C9000F4D5002070BD000070B541A000F050FBDD
:102CA000474C4FF05046012100202663C4E90E1026
:102CB000444D20E04448FFF727F9A16B45F8210077
:102CC000216B01C12163A06B55F820103FA000F0DB
:102CD00037FBD4E90E010A220023FDF714FB1A4347
:102CE00002D136A000F02CFBD4E90E01401C41F1CA
:102CF0000001C4E90E01D4E90E1264230020591A20
:102D00009041D7DA33A000F01BFB37A000F018FB8E
:102D1000012026630021374E17E0226B02CA46F8D5
:102D200020102AA0226300F00BFBD4E90E010A2236
:102D30000023FDF7E8FA1A4302D120A000F000FBBF
:102D4000D4E90E01401C41F10001C4E90E01D4E9AF
:102D50000E020021D0F164039141DEDA26A000F0DA
:102D6000EFFA002001460DE056F8201055F820003B
:102D7000814202D025A000F0E3FAD4E90E01401C04
:102D800041F10001C4E90E01D4E90E016422821A66
:102D900071F10001E8DBBDE8704028A000F0D0BA76
:102DA000BFAACABCC9FAB3C9313030B8F6534452CD
:102DB000414DB2E2CAD4CBE6BBFACAFD0D0A00000F
:102DC000000000201C080020DC0000102538782CB2
:102DD000000000000D0AD0B4C8EB534452414DCD61
:102DE000EAB3C90D0A0000000D0A0D0A0D0A0D0A0A
:102DF0000D0A00005CA400200D0AB6C1C8A153440E
:102E000052414DCDEAB3C90D0A0000000D0A0D0A6A
:102E10000D0A202D2D2DB2E2CAD4CAA7B0DCA3A87A
:102E2000D0B4C8EBB6C1C8A1B2BBD2BBD6C2A3A9AD
:102E30002D2D2D2D20200D0A000000000D0A0D0A59
:102E40000D0A202D2D2DB2E2CAD4B3C9B9A62D2D5D
:102E50002D2D20200D0A00002DE9F8431F4C0125DF
:102E60000826C4E900560027C4E902574FF6FF7947
:102E700021464A4601F11000FFF7CAFA18480090AF
:102E8000401E0090FCD10220C4E900061349C4E9A9
:102E900002574A4601F11000FFF7BAFA03204FF03B
:102EA0000408E76084E841010C494A4601F110003A
:102EB000FFF7AEFA40F23121C4E90251C4E90086BD
:102EC00006494A4601F11000FFF7A2FABDE8F843AF
:102ED000024840F2AB211030FFF787BA28010020EA
:102EE000A0860100FFF7F4FD04F080FA04F07EFAFA
:102EF000012005F01DFAF9E74FF480640C4D6600DF
:102F0000002221462846FEF7A7F9C82005F010FA4E
:102F1000012221462846FEF79FF9C82005F008FA4D
:102F200031462846FEF791F9C82005F001FAE7E797
:102F3000001C02400A4C4FF4005529462046FEF77B
:102F40007FF9012808D129462046FEF779F90128A2
:102F5000F9D004A000F0F4F9012005F0E9F9ECE75C
:102F6000000802400D0A202D2D2D4750494F5F507B
:102F7000494E5F31335FB0B4BCFCC2D6D1AFCFECA9
:102F8000D3A6200D0A0000004FF47A740548FEF71E
:102F9000BBFF014604A000F0D3F9204605F0C8F9B4
:102FA000F4E70000DC0000100D0A20504E47CBE68D
:102FB000BBFACAFD52616E646F6D20333262697470
:102FC000204E756D6265723A307825303878202150
:102FD0002121200D0A000000FFF75EFE012005F010
:102FE000A7F9FBE7012005F0A3F9FBE710B5502096
:102FF00080F31188BFF34F8FBFF36F8F0DF00CFE7E
:1030000018B104494FF080500860002080F3118807
:1030100010BD000004ED00E030B59FB030216846DF
:10302000FDF7DBF9142118A8FDF7D7F930210CA81A
:10303000FDF7D3F920480025016841F08051016077
:10304000006800F080501D901C48016841F4404128
:1030500001600068022400F440401D9009200090A7
:103060004FF4803001900120CDE9050480050790E0
:10307000192008904FF4B470CDE9090408200B9092
:103080006846FEF759FDFEF7E3FA18A90F2081E81C
:1030900031004FF4A0501B90E0021C90052118A8AD
:1030A000FEF738FC20200C90000116900CA8FEF7CB
:1030B00007FB1FB030BD00004038024000700040E8
:1030C0000548016841F47001016003494FF0006058
:1030D000803908607047000088ED00E00148FFF784
:1030E000DFB90000D8710120F0B50268254C264DEB
:1030F000264E274F274B4FF0804CA04209D0604509
:1031000007D0A84205D0B04203D0B84201D09842BF
:1031100004D122F0700E4A6842EA0E02A0421BD08F
:10312000604519D0A84217D0B04215D0B84213D08C
:10313000984211D0184DA8420ED0184DA8420BD07D
:10314000174DA84208D0174DA84205D0164DA842E9
:1031500002D0164DA84203D122F44075CA682A4312
:103160004D6922F080022A4302608A68C2620A68BE
:103170008262A04201D0984201D109690163012114
:103180004161F0BD00000140000400400008004023
:10319000000C004000040140004001400044014098
:1031A0000048014000180040001C00400020004082
:1031B0002DE9F041044600680169E26821F44051BC
:1031C000114301612169A068E26908436169114303
:1031D00008432168CA6849F20C639A430243CA60F3
:1031E00020684169A26921F4407111434161E0699D
:1031F000192764253226B0F5004F354A3549206835
:103200004FF0000806D0884201D0904236D1FEF738
:1032100051FC35E0884201D0904202D1FEF74AFCD1
:1032200001E0FEF737FC61684A18A0FB070148EB94
:103230000803FDF737F80146B0FBF5F00201B1FBDA
:10324000F5F06FF01803584301EB800006EBC00067
:10325000B0FBF5F000F0F80002EB4002B1FBF5F036
:10326000584301EB800006EBC000B0FBF5F000F026
:103270000700216810448860BDE8F081FEF70AFC71
:1032800061688B0F8A00A0FB0701FDF70BF8014670
:10329000B0FBF5F06FF01802504301EB800006EB35
:1032A0000010B0FBF5F000F0F002B1FBF5F002EB1E
:1032B0000012B1FBF5F06FF01803584301EB8000EA
:1032C00006EB0010B0FBF5F000F00F00D1E70000B6
:1032D00000140140001001402DE9F04198461746C6
:1032E0000E460446069D1DE0681C1BD02DB1FDF75F
:1032F000B9FFA0EB0800A84214D92068C16821F4E6
:10330000D071C1602068416921F001014161202034
:1033100084F8390084F83A00002084F8380003204B
:10332000BDE8F0812068006836EA000004D0002083
:10333000B842D9D00020F3E70120F9E7FEE700000A
:103340000FB4054B10B503A9044A029800F028F801
:1033500010BC5DF814FB0000F95E0008A40000102A
:103360000907090E002804DB00F1E02080F80014B2
:10337000704700F00F0000F1E02080F8141D704746
:1033800002E008C8121F08C1002AFAD1704770472E
:10339000002001E001C1121F002AFBD1704700008C
:1033A0002DE9FF4F8DB00F460546002606E0252883
:1033B0000BD0DDE90F1290476D1C761C2878002891
:1033C000F5D111B03046BDE8F08F0024A246A146E9
:1033D0000122EC4900E0044315F8013F203B02FACA
:1033E00003F00842F7D128782A2810D06FF02F0276
:1033F0002878A0F13001092914D80AEB8A0102EBE0
:10340000410144F0020400EB010A6D1CF0E701CF1A
:103410005FEA000A03D544F40054CAF1000A44F0FC
:1034200002046D1C28782E2817D115F8010F44F0DE
:1034300004042A280ED06FF02F022878A0F1300162
:1034400009290AD809EB890102EB410100EB0109C6
:103450006D1CF2E757F8049B6D1C28786C280FD080
:1034600006DC4C2817D068280DD06A2814D104E057
:10347000742810D07A280FD10DE044F400140AE02B
:1034800044F4801401E044F440146978814202D18C
:1034900004F580146D1C6D1C2A786E2A1FD00CDC7C
:1034A000632A31D004DC002A8BD0582A11D1A3E042
:1034B000642A68D0692A0CD165E0732A2ED004DC16
:1034C0006F2A73D0702A04D19BE0752A6FD0782AB6
:1034D0006ED01046DDE90F129047761C50E1C4F320
:1034E0000250022806D0032809D0042801CF09D0B1
:1034F000066045E101CFF117C0E9006140E101CF6D
:1035000006803DE106703BE117F8040B8DF80000E2
:1035100000208DF80100EB46012003E057F804BBC2
:103520004FF0FF3061074FF0000102D40DE008F1C9
:103530000101884649450FDA8045F8DB1BF8081081
:103540000029F4D108E008F1010188468142FADB44
:103550001BF808100029F6D1DDE90F23AAEB0800BB
:103560008146214600F036F9304400EB080604E0BD
:10357000DDE90F121BF8010B9047B8F10108F7D2F3
:1035800021464846F7E00A21C4F302534FF0000BEE
:103590000891022B04D001CFC117032B09D00AE0F8
:1035A000FF1D27F00707F7E8020108E032E01FE0FF
:1035B00020E000B2C117042B01D140B2C117031E95
:1035C00071F1000307DA4FF0000CD0EB0C006CEB4C
:1035D00001012D2302E0230504D52B238DF824308F
:1035E000012303E0E30701D02023F7E7984658E0E2
:1035F0000A2110E010210EE010204FF0000B08907F
:103600000CE010214FF0000B44F004044FF00809C7
:10361000089103E008214FF0000B0891C4F3025316
:10362000022B04D001CF0021032B06D006E0FF1DA2
:1036300027F00707F7E8020103E080B2042B00D16E
:10364000C0B24FF0000823072BD5702A07D0DDF851
:1036500020C08CF0100C5CEA0B0C05D00EE040236F
:103660008DF82430012308E050EA010306D030230E
:103670008DF824308DF8252002239846DDF820C0EF
:103680008CF0080C5CEA0B0C0BD150EA010301D161
:10369000630706D530238DF824304FF00108A9F1D7
:1036A0000109582A04D038A20B9208AA0A920BE00A
:1036B0003AA2F9E75B46089AFCF7F4FD0B9B9B5C8A
:1036C0000A9A521E0A92137050EA0102F2D10A9825
:1036D000ADEB000000F1200B600702D524F480342C
:1036E00001E04FF00109D94502DDA9EB0B0000E034
:1036F000002000EB0B0141440890AAEB010AE00313
:1037000006D4DDE90F232146504600F063F8064455
:103710004FF0000908E009A911F80900DDE90F12CE
:10372000904709F10109761CC145F4DBE0030CD593
:10373000DDE90F232146504600F04CF8064404E032
:10374000DDE90F1230209047761C0899481E08903A
:103750000029F5DC08E00A980A990078491C0A91CA
:10376000DDE90F129047761CBBF10001ABF1010BB4
:10377000F1DC21465046DDE90F2300F019F806443C
:103780006D1C1BE6092801003031323334353637E1
:10379000383961626364656600000000303132339D
:1037A000343536373839414243444546000000003D
:1037B0002DE9F041044600251E461746880404D42E
:1037C00005E039462020B0476D1C641EF9D5284617
:1037D000BDE8F0812DE9F041044600251E469046E3
:1037E000C80301D5302700E02027880404D505E070
:1037F00041463846B0476D1C641EF9D52846BDE8E1
:10380000F081000058B1026A002A0FD05379082BCA
:103810000CD10968D269914208D100F0C3BA04A35F
:1038200040F28B3210A114A0FFF78ABD7047000050
:103830002E2E2F4D6964646C6577617265732F5409
:10384000686972645F50617274792F4C7749502FA8
:103850007372632F636F72652F697076342F64689B
:1038600063702E63000000006E6574696620213D60
:10387000204E554C4C000000417373657274696FA3
:103880006E2022257322206661696C656420617454
:10389000206C696E6520256420696E2025730A00FE
:1038A0002DE9FC4105001AD02C6AECB1002363829B
:1038B000A16A4FF03C07B1F1FF3F4FF480364FF063
:1038C00001024FF6FF7019D01E31B1FBF7F1B14282
:1038D00000D301460904090CA1820ED00EE02DA3ED
:1038E00040F2154239A103E02AA340F217423EA15B
:1038F00043A0FFF725FDBDE8FC81A282E16AB1F19A
:10390000FF3F0CD01E31B1FBF7F1B14200D30146AD
:103910000904090C618100D162816189E181216B17
:10392000B1F1FF3F0CD01E31B1FBF7F1B14200D332
:1039300001460904090CA18100D1A281A18921823B
:103940006289A1898A4201D301B16381E17909B118
:10395000206A08E0217F7F2901D8FF2003E0C029E9
:1039600001D36FF07F400090606A019028B9E06950
:103970000099084040F0807001900A21204601F033
:103980002DFA01AB6A4604F11C01284604F0F6FB4F
:10399000B1E700002E2E2F4D6964646C657761726B
:1039A00065732F54686972645F50617274792F4C2B
:1039B0007749502F7372632F636F72652F6970762A
:1039C000342F646863702E630000000064686370C5
:1039D0005F62696E643A206E6574696620213D20DD
:1039E0004E554C4C00000000646863705F62696E65
:1039F000643A206468637020213D204E554C4C0091
:103A0000417373657274696F6E202225732220667C
:103A100061696C6564206174206C696E6520256441
:103A200020696E2025730A0070B5046A05460821D6
:103A3000204601F0D3F9002204F11C01284601F0D0
:103A4000A1FEA079FF2801D2401CA0714FF4FA71A9
:103A500040F2E730B0FBF1F0208170BD70B529482D
:103A600004684CE0206AA0B3417991B3818A69B1BE
:103A7000418A491C89B24182828A914206D12046FC
:103A800000F0E2FF204601F0B1F937E0018A19B1F8
:103A90004A1E0282012906D0C189D1B14A1EC281C3
:103AA000012917D02AE0256A20466979012905D025
:103AB0000A2903D0052901D004291FD100F048FEAE
:103AC000A88A698A401A022818DB00EBD0704008E7
:103AD000288213E0256A20466979012903D00A2942
:103AE00001D005290AD101F00DF8A889698A401A88
:103AF000022803DB00EBD0704008E8812468002C2A
:103B0000B0D170BD6C0000102DE9F0479946164603
:103B10000D4607001BD0002D1ED04FF49A744FF4B1
:103B200020722146362004F067FEB0F100081BD059
:103B3000B8F80A00A246504506D232A340F271728C
:103B40003EA14EA0FFF7FCFB032E12D10EE02DA3E9
:103B500040F2697253A103E02AA340F26A7259A1AC
:103B600046A0FFF7EDFB0020BDE8F0876879032849
:103B700008D1A8795B4C08B1606802E0FCF7F4FB5F
:103B800060602860D8F8044051462046FCF725FCC8
:103B900001202070607097F82C00A070286803F056
:103BA0009BFC6060082E0AD0042E08D0072E06D099
:103BB000032E06D16879052801D0042801D1786840
:103BC000E060002039182218401C91F8261080B2BD
:103BD00011770628F6D34448C4F8EC0004F1F0014C
:103BE000012335220C46002000F060FA32462146BF
:103BF00000F0A8FAB9F1000F01D0A9F80000404682
:103C0000B2E700002E2E2F4D6964646C65776172F7
:103C100065732F54686972645F50617274792F4CB8
:103C20007749502F7372632F636F72652F697076B7
:103C3000342F646863702E63000000006468637052
:103C40005F6372656174655F6D73673A2063686571
:103C5000636B20746861742066697273742070628B
:103C600075662063616E20686F6C64207374727572
:103C7000637420646863705F6D736700417373657C
:103C80007274696F6E2022257322206661696C65EB
:103C900064206174206C696E6520256420696E2043
:103CA00025730A00646863705F6372656174655FA1
:103CB0006D73673A206E6574696620213D204E550C
:103CC0004C4C0000646863705F6372656174655F8B
:103CD0006D73673A206468637020213D204E554C17
:103CE0004C0000000C0100206382536310B50B4CA4
:103CF0002078002805D10AA3FF2217A11FA0FFF7F3
:103D00001FFB2078401E10F0FF00207004D1A06837
:103D10000BF0AAFD0020A06010BD00000C010020E7
:103D20002E2E2F4D6964646C6577617265732F5414
:103D3000686972645F50617274792F4C7749502FB3
:103D40007372632F636F72652F697076342F6468A6
:103D500063702E6300000000646863705F706362CC
:103D60005F726566636F756E7428293A20726566A6
:103D7000636F756E74206572726F72004173736544
:103D80007274696F6E2022257322206661696C65EA
:103D900064206174206C696E6520256420696E2042
:103DA00025730A00FEB5046A06460C21204601F080
:103DB00015F802AB042221463046FFF7A5FE0500A8
:103DC00028D069680423F03132220F46BDF808007C
:103DD00000F06CF9ADF80800E06903F07DFB0246E5
:103DE0003946BDF8080000F00BFAADF808002A4685
:103DF000394600F0D5FA0F484323CDE900600F485B
:103E00000D4A294680680BF027FE0646284605F035
:103E100009F901E04FF0FF36A079FF2801D2401CDC
:103E2000A07142F603104FF4FA71B0FBF1F020815B
:103E30003046FEBDCC120108D01201080C01002052
:103E40002DE9FE4F046A07464FF00009062120467F
:103E5000C4F81C9000F0C2FF02AB01222146384694
:103E6000FFF752FE06003BD071680223F0318A460C
:103E700039225546BDF8080000F018F9ADF80800E1
:103E8000BA8C294600F028FAADF80800032337223F
:103E9000294600F00BF9DFF88480ADF80800002512
:103EA000514618F80520BDF8080000F04BF96D1CCC
:103EB000EDB2ADF80800032DF2D33246514680B280
:103EC00000F06EFA16484323CDE900701348154AF6
:103ED000401E314680680BF0BFFD304605F0A2F869
:103EE000A079FF2801D2401CA071C1B2062902D2DC
:103EF0000120884000E03C2000EB4001C1EBC010F5
:103F00004FF6FF7101EAC0004FF4FA7100F2F310AE
:103F1000B0FBF1F020814846BDE8FE8F0D01002086
:103F2000CC120108D012010870B50B4800250468B6
:103F30000EE0206A58B10189012903D9A1F10101DC
:103F4000018104E003D10581204600F0F1FF2468DF
:103F5000002CEED170BD00006C00001070B5046A3A
:103F60000020154D20626062EA78144E0AB1F268B2
:103F7000A2622A790AB1326901E0A26A5208E262B9
:103F80006A790AB1726903E0A26AC2EBC202D2087E
:103F900022630969E161A97921B1B06903F09CFA52
:103FA00020620120E071E879002803D0F06903F075
:103FB00093FA606270BD000018010020D41F022037
:103FC00010B5154C207800281ED1A068002805D017
:103FD00012A3E5221FA129A0FFF7B2F90BF0F2FB13
:103FE000A060B0B1417A442241F0200141722D49D4
:103FF0000BF02EF943222B49A0680BF0C3F90022E5
:104000002949A0680BF0ECFB2078401C20700020B0
:1040100010BD4FF0FF3010BD0C0100202E2E2F4D93
:104020006964646C6577617265732F546869726442
:104030005F50617274792F4C7749502F7372632FE0
:10404000636F72652F697076342F646863702E63B6
:1040500000000000646863705F696E635F70636294
:104060005F726566636F756E7428293A206D656DA1
:104070006F7279206C65616B00000000417373659D
:104080007274696F6E2022257322206661696C65E7
:1040900064206174206C696E6520256420696E203F
:1040A00025730A00CC120108294900082DE9F041C6
:1040B0001D4604462844801C17460E46442806D94F
:1040C00007A340F29A52144914A0FFF739F9375563
:1040D000641CA0B23554401C80B2BDE8F0810000E1
:1040E0002E2E2F4D6964646C6577617265732F5451
:1040F000686972645F50617274792F4C7749502FF0
:104100007372632F636F72652F697076342F6468E2
:1041100063702E63000000000C1401084173736586
:104120007274696F6E2022257322206661696C6546
:1041300064206174206C696E6520256420696E209E
:1041400025730A0070B515460E460446442806D36A
:1041500005A340F2A65212A11FA0FFF7F1F83555B2
:10416000641CA0B270BD00002E2E2F4D6964646CDB
:104170006577617265732F54686972645F5061720C
:1041800074792F4C7749502F7372632F636F726568
:104190002F697076342F646863702E63000000000E
:1041A000646863705F6F7074696F6E5F6279746565
:1041B0003A206F7074696F6E735F6F75745F6C65B2
:1041C0006E203C20444843505F4F5054494F4E535B
:1041D0005F4C454E00000000417373657274696F57
:1041E0006E2022257322206661696C6564206174EB
:1041F000206C696E6520256420696E2025730A0095
:1042000070B50546001D14460E46442806D90BA37A
:1042100040F2B75217A126A0FFF792F8200E705572
:104220006D1CA8B2210C3154401C80B2210A3154BB
:10423000401C80B23454401C80B270BD2E2E2F4DD5
:104240006964646C6577617265732F546869726420
:104250005F50617274792F4C7749502F7372632FBE
:10426000636F72652F697076342F646863702E6394
:1042700000000000646863705F6F7074696F6E5F48
:104280006C6F6E673A206F7074696F6E735F6F75D5
:10429000745F6C656E202B2034203C3D20444843E5
:1042A000505F4F5054494F4E535F4C454E000000F5
:1042B000417373657274696F6E20222573222066C4
:1042C00061696C6564206174206C696E6520256489
:1042D00020696E2025730A0070B50446801C1546BF
:1042E0000E46442806D907A340F2AE5213A122A0DD
:1042F000FFF726F8280A3055641CA0B23554401C3C
:1043000080B270BD2E2E2F4D6964646C657761722A
:1043100065732F54686972645F50617274792F4CB1
:104320007749502F7372632F636F72652F697076B0
:10433000342F646863702E6300000000646863704B
:104340005F6F7074696F6E5F73686F72743A206F1D
:104350007074696F6E735F6F75745F6C656E202B20
:104360002032203C3D20444843505F4F5054494F39
:104370004E535F4C454E0000417373657274696F14
:104380006E2022257322206661696C656420617449
:10439000206C696E6520256420696E2025730A00F3
:1043A000FF230B54401C80B2002302E00B54401C3E
:1043B00080B24428FAD3F03081B2104604F016BF20
:1043C0002DE9F04F85B08246A14900200490C860D5
:1043D0000861BAF80A002C2817D3BAF808004FF081
:1043E000F00901F10C07564607E000BFA9EB0201F6
:1043F000801A36681FFA81F980B236B1728949464F
:104400004A45F3D90C460290F0E06FF0010005B088
:10441000BDE8F08FA11C89B24FF0FF350191A14298
:10442000F3D37189621C914203D9039921444978DD
:1044300003E0316809B1496809783428884634D0E6
:1044400007DC98B1012814D003281AD0332808D1EA
:1044500022E0352850D0362857D03A285DD03B2866
:1044600063D04FF00008002867D02DE00021884677
:10447000F9E7042903D077A340F22E6211E0062564
:10448000F1E74FF00408042904D272A340F233622A
:104490007EA1B2E00725E6E7042904D06DA340F22F
:1044A00041627FA1A9E00325DDE7012903D069A3CB
:1044B00040F24F6225E0B9F1F00F04D065A340F25D
:1044C00051627AA199E000256018801CB0F5803F08
:1044D0009BD284B2B8F1000F7AD000200090082D52
:1044E00006D35CA34FF4CF6276A17BA0FEF728FF32
:1044F000785D002823D06BE0012904D055A340F259
:1045000055627FA179E00125ADE7042903D051A3CD
:1045100040F25962C5E70225A5E7042903D04DA35F
:1045200040F25D62BDE704259DE7042903D049A35D
:1045300040F26162B5E7052595E794B248E0404650
:10454000B8F1040F00D30420834602466946304682
:10455000019B04F0DBFC58457FF457AFB8F1040F22
:104560001ED95FEA887004D03AA340F2816267A145
:1045700043E001207855009802F0AEFF01466948FB
:1045800040F82510A8F1040000F0FF0801980199F7
:10459000001D80B28842FFF438AF6D1C01909EE789
:1045A000B8F1040F07D0B8F1010F08D029A34FF4D8
:1045B000D2625DA121E0009802F08EFF01E09DF83B
:1045C00000000090012078555648009940F82510C9
:1045D0007089A04217D8211A8CB20299081A80B2A9
:1045E00002908442BFF411AF366816B17068039030
:1045F0000AE018A340F29D6250A137A0FEF7A0FE8A
:104600006FF0050003E73EB10298844204D203989C
:10461000005DFF287FF4FEAE387848B141480021A4
:104620000068397001280ED0022804D0032808D071
:1046300004980028E6D0002004904FF02C096C204C
:10464000D1E6012004904FF06C09EC20CBE600008D
:104650000C0100202E2E2F4D6964646C6577617209
:1046600065732F54686972645F50617274792F4C5E
:104670007749502F7372632F636F72652F6970765D
:10468000342F646863702E63000000006C656E2038
:104690003E3D206465636F64655F6C656E0000007D
:1046A0006C656E203D3D2034000000006F76657221
:1046B0006C6F616420696E2066696C652F736E6132
:1046C0006D650000636865636B206465636F646596
:1046D0005F69647800000000417373657274696FEC
:1046E0006E2022257322206661696C6564206174E6
:1046F000206C696E6520256420696E2025730A0090
:104700006C656E203D3D2031000000006465636FE4
:1047100064655F6C656E2025252034203D3D20308A
:1047200000000000D41F0220696E76616C6964206D
:104730006465636F64655F6C656E00006E657874B8
:10474000207062756620776173206E756C6C000056
:104750002DE9FC47046A07460421204600F03EFB91
:1047600001AB032221463846FFF7CEF906003BD0C5
:1047700071680223F031894639224D46BDF80400A4
:10478000FFF794FCADF80400BA8C2946FFF7A4FDAE
:10479000ADF80400032337222946FFF787FCDFF832
:1047A0008080ADF804000025494618F80520BDF8C2
:1047B0000400FFF7C7FC6D1CEDB2ADF80400032D3B
:1047C000F2D33246494680B2FFF7EAFD144800971B
:1047D000401E4323134A314680680BF09DF805467E
:1047E000304604F01FFC01E04FF0FF35A079FF28B0
:1047F00001D2401CA071C0B20A2804D24FF47A71D1
:1048000010FB01F001E042F2107080B24FF4FA7137
:1048100000F2F310B0FBF1F020812846BDE8FC87E0
:104820000D010020D01201082DE9FC47046A07465B
:104830000321204600F0D2FA01AB0322214638467C
:10484000FFF762F906004FD071680223F031894604
:1048500039224D46BDF80400FFF728FCADF80400EE
:104860004FF410722946FFF737FDADF8040004231A
:1048700032222946FFF71AFCADF80400E06902F085
:104880002BFE02462946BDF80400FFF7B9FCADF83F
:104890000400032337222946FFF708FCDFF8808055
:1048A000ADF80400002500BF18F805204946BDF802
:1048B0000400FFF747FC6D1CEDB2ADF80400032DBA
:1048C000F2D33246494680B2FFF76AFD144800979A
:1048D000401E4323134A314680680BF01DF80546FD
:1048E000304604F09FFB01E04FF0FF35A079FF2830
:1048F00001D2401CA071C0B20A2804D24FF47A71D0
:1049000010FB01F001E042F2107080B24FF4FA7136
:1049100000F2F310B0FBF1F020812846BDE8FC87DF
:104920000D010020D01201082DE9F04142485168E4
:1049300016464468256A002D79D02879002876D05B
:1049400070892C2873D30878022870D1002094F83D
:104950002C2008E023180F1893F826303F7FBB4225
:1049600065D1401CC0B2824201D90628F2D3486802
:1049700002F0B2FD2968884259D129463046FFF736
:104980001FFD08BB2D494878F0B12D4A7768107992
:10499000052804D0062821D0022836D047E06879BF
:1049A000012806D0032814D0042812D0052810D0DE
:1049B0003DE039462046FFF7D1FA94F82D00000774
:1049C00003D52046FFF730F831E02046FEF768FFB8
:1049D0002DE039462046FFF7C1FAF6E7687903284B
:1049E00005D0012803D0042801D005281FD10C21AF
:1049F000206A00F0F3F9134B20461A46114603F0E3
:104A0000BDFB2046FFF71CFA11E0687906280ED19D
:104A10002546246A887850B100202081906802F0F1
:104A20005BFDA0613869E061284600F0D7F83046A8
:104A3000BDE8F04104F0F6BA780300101801002038
:104A4000D41F0220CC1201082DE9FE43046A074658
:104A5000002C51D0607900284ED0A069029000252A
:104A6000A561E561256265622563E562A562A582AF
:104A700065822582E581384600F04CFA60B301ABCF
:104A8000072221463846FFF73FF8060024D0716818
:104A90000423F03136228846BDF80400FFF706FBF8
:104AA000ADF80400029802F017FD02464146BDF839
:104AB0000400FFF7A5FBADF8040032464146FFF7BE
:104AC0006FFC0E480097432302AA314680680AF023
:104AD00023FF304604F0A6FA094B38461A46114621
:104AE00003F04CFB0021204600F078F920790028E3
:104AF00002D0FFF7FBF82571BDE8FE830C01002012
:104B0000CC1201082DE9FC47046A0746052120461E
:104B100000F064F901AB032221463846FEF7F4FFAA
:104B200006003CD071680223F031894639224D4697
:104B3000BDF80400FFF7BAFAADF80400BA8C2946B4
:104B4000FFF7CAFBADF80400032337222946FFF71D
:104B5000ADFADFF88480ADF804000025494618F866
:104B60000520BDF80400FFF7EDFA6D1CEDB2ADF8BD
:104B70000400032DF2D33246494680B2FFF710FC01
:104B800015480097401E432304F1180231468068FF
:104B90000AF0C2FE0546304604F044FA01E04FF048
:104BA000FF35A079FF2801D2401CA071C0B20A28AD
:104BB00004D24FF4FA6110FB01F001E044F62060EA
:104BC00080B24FF4FA7100F2F310B0FBF1F02081E3
:104BD0002846BDE8FC8700000D0100202DE9FE43BA
:104BE000070073D03C6A002C7CD00121204600F0E5
:104BF000F5F802AB032221463846FEF785FF060092
:104C00007AD071680223F031894639224D46BDF8C9
:104C10000800FFF74BFAADF80800BA8C2946FFF7F9
:104C20005BFBADF80800042332222946FFF73EFA69
:104C3000ADF80800E06902F04FFC02462946BDF8D5
:104C40000800FFF7DDFAADF80800042336222946F4
:104C5000FFF72CFAADF80800A06902F03DFC02460F
:104C60002946BDF80800FFF7CBFAADF8080003238A
:104C700037222946FFF71AFADFF8BC80ADF80800A2
:104C8000002500BF18F805204946BDF80800FFF7C9
:104C900059FA6D1CEDB2ADF80800032DF2D332467F
:104CA000494680B2FFF77CFB24484323CDE90070DE
:104CB0002148234A401E314680680AF0CDFE054651
:104CC000304604F0AFF919E000E00BE01DA340F21C
:104CD00077122AA130A0FEF733FB6FF00F00BDE87A
:104CE000FE8309E017A340F2791235A12AA0FEF74E
:104CF00027FB6FF00500F2E74FF0FF35A079FF28A2
:104D000001D2401CA071C0B2062802D2012181400C
:104D100000E03C2101EB4100C0EBC1104FF6FF71F8
:104D200001EAC0004FF4FA7100F2F310B0FBF1F0A9
:104D300020812846D3E700000D010020CC12010895
:104D4000D01201082E2E2F4D6964646C6577617254
:104D500065732F54686972645F50617274792F4C67
:104D60007749502F7372632F636F72652F69707666
:104D7000342F646863702E63000000006468637001
:104D80005F73656C6563743A206E65746966202193
:104D90003D204E554C4C0000417373657274696F31
:104DA0006E2022257322206661696C65642061741F
:104DB000206C696E6520256420696E2025730A00C9
:104DC000646863705F73656C6563743A20646863DC
:104DD0007020213D204E554C4C00000042798A4203
:104DE00003D04171002181710181704770B50500C8
:104DF0006FF00F041AD095F82D00C0071BD0A88CB7
:104E00002C6A4FF0FF36B0F5107F0DD3002C1BD06D
:104E1000207908B1FEF76AFF34212046FBF7DDFA5E
:104E2000FFF7CEF8002816D0304670BD14A340F22C
:104E3000E72221A103E012A34FF43A7222A12BA092
:104E4000FEF77EFA204670BD342002F0BFFC04005D
:104E5000EAD02C62E0E70120207195F82D00400790
:104E600005D402212046FFF7B9FF002070BD284677
:104E7000FEF7E6FF0028F9D02846FFF7E5FDD3E767
:104E80002E2E2F4D6964646C6577617265732F54A3
:104E9000686972645F50617274792F4C7749502F42
:104EA0007372632F636F72652F697076342F646835
:104EB00063702E63000000006E6574696620213DFA
:104EC000204E554C4C0000006E6574696620697375
:104ED000206E6F742075702C206F6C642073747951
:104EE0006C6520706F72743F000000004173736541
:104EF0007274696F6E2022257322206661696C6569
:104F000064206174206C696E6520256420696E20C0
:104F100025730A0040B1006A30B140790A2805D0F3
:104F2000052803D0042801D00020704701207047D5
:104F300010B5026A044651790C290BD0062909D014
:104F400001290BD0082918D0032926D190790228ED
:104F500020461ED3BDE81040FEF772BF90790528A9
:104F6000204603D8BDE81040FFF738BEFFF76CFDC0
:104F70002046BDE81040FFF739BF90790128204650
:104F800003D8BDE81040FEF74FBDBDE81040FEF766
:104F900087BCBDE81040FFF747BC10BD70B50546A3
:104FA0000C46880706D009A34FF4B67213A11BA0C4
:104FB000FEF7C6F904F0DEFFA96809682160A96858
:104FC0000C60BDE8704004F0E1BF00002E2E2F4DB4
:104FD0006964646C6577617265732F546869726483
:104FE0005F50617274792F4C7749502F7372632F21
:104FF000636F72652F6D656D702E63006D656D70EA
:105000005F667265653A206D656D2070726F7065C0
:10501000726C7920616C69676E65640041737365B9
:105020007274696F6E2022257322206661696C6537
:1050300064206174206C696E6520256420696E208F
:1050400025730A0070B5044604F094FF0546A06875
:105050000468002C0FD021680160A00706D008A3C7
:105060004FF48C7212A11BA0FEF76AF9284604F0D7
:105070008DFF204670BD284604F088FF002070BDDB
:105080002E2E2F4D6964646C6577617265732F54A1
:10509000686972645F50617274792F4C7749502F40
:1050A0007372632F636F72652F6D656D702E630071
:1050B0006D656D705F6D616C6C6F633A206D656DD1
:1050C000702070726F7065726C7920616C69676EA8
:1050D00065640000417373657274696F6E202225E8
:1050E0007322206661696C6564206174206C696E4E
:1050F0006520256420696E2025730A0070B5094D6E
:105100000646002404EB440005EBC000017D29B1F4
:105110008068B04202D1204600F036F9641C0A2CA7
:10512000F0DB70BDF41F02202DE9F74F84B04FF083
:105130000A0B00240646DA465F46D94602940194DB
:10514000CDF80040514904EB440001EBC008039046
:1051500098F814500A2F1DD0002D2AD0012D08D008
:10516000022D06D24AA340F2231257A166A0FEF7F1
:10517000E7F89EB13168D8F8040081420ED1069854
:1051800020B1D8F808100698814207D1204607B010
:10519000BDE8F08F002DE1D127460AE0012D16D0A1
:1051A000022D06D3B8F812000099884201D3A24616
:1051B0000090641C24B20A2CC4DB059881074FF0D0
:1051C000FF30E4D40A2F16D018DA3C463EE02F49CF
:1051D000039851F830000028B8F8120005D0029961
:1051E0008842E6D3A1460290E3E701998842E0D3E2
:1051F000A3460190DDE70599C907C8D05146BAF129
:105200000A0F0EDA0C46214801EB440150F8310038
:1052100080B11FA340F26D1245A13BA0FEF790F8AC
:1052200008E05946BBF10A0F03DB4946B9F10A0F02
:10523000ADDA0C460A2C06DB15A340F27F1242A120
:1052400031A0FEF77DF8204600F09EF80A2C06DB20
:105250000FA340F283123CA12BA0FEF771F80B487C
:1052600004EB440100EBC105287D30B108A34FF4E5
:10527000C2723AA124A0FEF763F80EB130686860EC
:10528000002068820698A86080E70000F41F0220D2
:105290002E2E2F4D6964646C6577617265732F548F
:1052A000686972645F50617274792F4C7749502F2E
:1052B0007372632F636F72652F697076342F657414
:1052C000686172702E6300007374617465203D3DE7
:1052D000204554484152505F53544154455F504516
:1052E0004E44494E47207C7C207374617465203E97
:1052F0003D204554484152505F53544154455F53FB
:105300005441424C45000000417373657274696FEB
:105310006E2022257322206661696C6564206174A9
:10532000206C696E6520256420696E2025730A0053
:105330006172705F7461626C655B695D2E71203DA6
:105340003D204E554C4C000069203C204152505F9E
:105350005441424C455F53495A4500006172705FA9
:105360007461626C655B695D2E7374617465203D68
:105370003D204554484152505F53544154455F4588
:105380004D5054590000000070B5074C00EB40052B
:10539000002654F8350018B103F044FE44F8356097
:1053A00004EBC500067570BDF41F02202DE9F04323
:1053B00085B00D00074609D07C684FF480782088BE
:1053C000404542D1207906283FD109E021A340F28F
:1053D0008A222EA131A0FDF7B3FF05B0BDE8F0830E
:1053E0006079042831D1608808282ED1D4F80E00C5
:1053F0000490A169686820B1814202D10126334638
:1054000001E00026022304F10802914604A928467F
:1054100000F0ACFBE088404503D0B0F5007F14D12C
:105420000FE096B1022204ABCDE90232291DCDE98D
:10543000001905F1260319464A46284600F096FA57
:1054400003E004A92846FEF7DDF9384603F0EAFD3B
:10545000C3E700002E2E2F4D6964646C657761727E
:1054600065732F54686972645F50617274792F4C50
:105470007749502F7372632F636F72652F6970764F
:10548000342F6574686172702E6300006E657469F4
:105490006620213D204E554C4C0000004173736541
:1054A0007274696F6E2022257322206661696C65B3
:1054B00064206174206C696E6520256420696E200B
:1054C00025730A00FEB515460E46040006D143A317
:1054D00040F21E324FA153A0FDF732FF36B93FA371
:1054E00040F21F3259A14FA0FDF72AFF35B93BA367
:1054F0004FF4487258A14BA0FDF722FF21462868BF
:1055000000F090FE08B1584B3FE02868C0F303114B
:105510000E2925D0A168636800EA01020B409A4277
:1055200008D080B2A0F57E41A93903D0E068B0B3BD
:1055300004F10C054D4B4E481A7802EB420100EB8A
:10554000C1010F7D022F2ED38F68A7422BD12F6868
:1055500049688F4227D13146204600F08BF8FEBDC6
:1055600001208DF8040000208DF805005E208DF8E4
:105570000600687801AB00F07F008DF80700A8787E
:105580008DF80800E8788DF809004FF4006000906D
:1055900004F126023146204600F0C8FBFEBDFFE7BD
:1055A0006FF00300FAE7002202EB420100EBC101B9
:1055B0000F7D022F08D38F68A74205D12F68496855
:1055C0008F4201D11A70C6E7521CD2B20A2AEBD31D
:1055D00032462946204600F0D5F8DFE72E2E2F4D23
:1055E0006964646C6577617265732F54686972646D
:1055F0005F50617274792F4C7749502F7372632F0B
:10560000636F72652F697076342F6574686172708C
:105610002E6300006E6574696620213D204E554C56
:105620004C000000417373657274696F6E2022250F
:105630007322206661696C6564206174206C696EF8
:105640006520256420696E2025730A007120213DA4
:10565000204E554C4C00000069706164647220213A
:105660003D204E554C4C0000741101089400001070
:10567000F41F02202DE9F8430646154688461C48CB
:1056800002EB450100EBC104207D022806D219A3DC
:1056900040F2EE2225A131A0FDF752FE144A05EB9F
:1056A0004501207D02EBC1050C35022813D1608A2B
:1056B0000327B0F58E7F04D9211D304600F010FA83
:1056C00007E0B0F5877F06D32A46211D304600F05B
:1056D0000DFA00B927754FF4006000902B4606F1D3
:1056E00026024146304600F021FBBDE8F883000069
:1056F000F41F02202E2E2F4D6964646C6577617251
:1057000065732F54686972645F50617274792F4CAD
:105710007749502F7372632F636F72652F697076AC
:10572000342F6574686172702E6300006172705F5F
:105730007461626C655B6172705F6964785D2E7321
:1057400074617465203E3D204554484152505F537A
:10575000544154455F535441424C45004173736575
:105760007274696F6E2022257322206661696C65F0
:1057700064206174206C696E6520256420696E2048
:1057800025730A002DE9FC5F8246263001900E4603
:10579000086814464FF0FF374FF0000B514600F0F9
:1057A00041FD80B93068C0F303110E290BD056B10A
:1057B00048B1524601213046FFF7B6FC050005D539
:1057C00040B2BDE8FC9F6FF00F00FAE77F2D06D3D3
:1057D00037A340F2C13244A147A0FDF7B1FD05F067
:1057E000FF094F4909EB490801EBC805287D00284E
:1057F0000ED0012808D0022806D22DA340F2CD32C7
:1058000048A13DA0FDF79CFDBBF1000F06D104E0CF
:1058100001202875C5F808A000E034B9314650468B
:1058200000F05EF90746002CCBD0287D3C4E0228C4
:105830000ED346494FF4006005F10C0381F8009047
:10584000009021465046019A00F070FA07462DE07C
:1058500001282BD1254640F2F137688929898842F1
:1058600007D1286828B112A33A4639A122A0FDF732
:1058700067FD287B400607D522464FF420710E2095
:1058800003F006FA044605E02D68002DE5D1204618
:1058900003F046FD44B156F8380008B103F0C2FBEE
:1058A00046F83840002701E04FF0FF37384688E7D8
:1058B0002E2E2F4D6964646C6577617265732F5469
:1058C000686972645F50617274792F4C7749502F08
:1058D0007372632F636F72652F697076342F6574EE
:1058E000686172702E63000074797065206F766550
:1058F00072666C6F77000000417373657274696F34
:105900006E2022257322206661696C6564206174B3
:10591000206C696E6520256420696E2025730A005D
:10592000F41F02206172705F7461626C655B695D77
:105930002E7374617465203D3D2050454E44494EA0
:1059400047206F7220535441424C45009400001090
:105950006E6F207061636B6574207175657565731A
:1059600020616C6C6F776564210000002DE9FF4FAA
:1059700081B09846DDE90FA9DDF838B006004FF098
:10598000000706D12CA340F2574239A13CA0FDF7F5
:10599000D7FC4FF420721C210E2002F02DFF0500D1
:1059A00046D068891C2806D223A340F262423EA159
:1059B00033A0FDF7C5FC6C68119801F08FFDE08005
:1059C00096F82C00062806D01BA340F269424349F2
:1059D0002BA0FDF7B5FCD8F80010A160B8F80400C2
:1059E000A081DAF80010C4F81210BAF80400E082BE
:1059F000DBF80000C4F80E00D9F80000A0614FF4F5
:105A00008070208008206080062020710420607152
:105A100040F60600DDE9022300902946304600F0FA
:105A200085F9284603F0FEFA384605B0BDE8F08F48
:105A30004FF0FF30F9E700002E2E2F4D6964646CA3
:105A40006577617265732F54686972645F50617223
:105A500074792F4C7749502F7372632F636F72657F
:105A60002F697076342F6574686172702E63000040
:105A70006E6574696620213D204E554C4C00000037
:105A8000417373657274696F6E20222573222066DC
:105A900061696C6564206174206C696E65202564A1
:105AA00020696E2025730A00636865636B20746843
:105AB0006174206669727374207062756620636118
:105AC0006E20686F6C6420737472756374206574E3
:105AD000686172705F686472000000005014010811
